:020000040800F2
:1000000070110020C1010008591D0008151B0008CF
:10001000551D00088D1300089926000800000000F7
:100020000000000000000000000000003123000874
:10003000D5180008000000005B210008912300088B
:10004000DB010008DB010008DB010008DB01000820
:10005000DB010008DB010008DB010008DB01000810
:10006000DB010008D9180008DB010008DB010008EB
:10007000DB010008DB010008DB010008DB010008F0
:10008000DB010008DB010008DB010008DB010008E0
:10009000DB010008DB010008DB010008DB010008D0
:1000A000DB010008DB010008DB010008DB010008C0
:1000B000DD240008DB010008DB010008DB0100088B
:1000C000DB010008DB010008DB010008DB010008A0
:1000D000DB01000829260008DB010008DB0100081D
:1000E000DB010008DB010008DB010008DB01000880
:1000F000DB010008DB010008DB010008DB01000870
:10010000DB010008292300081D250008DB01000889
:10011000DB010008DB010008DB010008DB0100084F
:10012000DB010008DB010008DB010008DB0100083F
:10013000DB010008DB010008DB010008DB0100082F
:10014000DB010008DB010008DB010008DB0100081F
:10015000DB010008DB010008DB010008DB0100080F
:10016000DB010008DB010008DB010008DB010008FF
:10017000DB010008DB010008DB01000800000000D3
:10018000DB010008DB010008DB010008DB010008DF
:10019000DB010008DB010008DB01000800000000B3
:1001A000DB010008DB010008DB010008DFF80CD0F0
:1001B00000F08CFE00480047115F0008701100201D
:1001C0000648804706480047FEE7FEE7FEE7FEE7F1
:1001D000FEE7FEE7FEE7FEE7FEE7FEE799230008FD
:1001E000AD01000840EA01039B0703D009E008C9FC
:1001F000121F08C0042AFAD203E011F8013B00F8EC
:10020000013B521EF9D27047D2B201E000F8012B37
:10021000491EFBD270470022F6E710B513460A4686
:1002200004461946FFF7F0FF204610BD421C10F8A7
:10023000011B0029FBD1801A704710B5002200E095
:10024000521C835C8C5CA34201D1002BF8D1D8B244
:10025000E1B2401A10BD00000FB400B58DB010A976
:1002600009900B9000914FF0FF300A9000200C9005
:1002700005480690054807906A4609A80F9900F0BE
:1002800031FC0DB05DF814FB010B00081F0B0008DA
:100290002DE9FF5F1D464FF0FF3BD5E90146914632
:1002A0005F464FF00008A9697F1C01988847296ABA
:1002B000824688470028F6D1BAF1FF3F0CD024F4DB
:1002C000C064002E19DD600614D5BAF12B0F09D0D9
:1002D000BAF12D0F0ED103E0584604B0BDE8F09FEF
:1002E00044F48064A9697F1C01988847761E824681
:1002F000002E02DDBAF1300F03D0B9F1000F26D085
:1003000032E0A969761E44F400747F1C0198884786
:100310008246002E05DDBAF1780F06D0BAF1580FEB
:1003200003D0B9F1000F10D01EE0B9F1000F02D0D8
:10033000B9F1100F18D1A969761E24F400747F1C3E
:10034000019888478246102002E0082000E00A2039
:10035000814609E008FB0908A969761E44F4007487
:100360007F1C019888478246002E05DD494650468D
:1003700000F0A4FB0028EDDAE96901988847A005A0
:1003800002D46FF00100A8E7E00725D1600613D57D
:10039000600502D5C8F1000000E0404629680A1D4A
:1003A0002A600968220501D5087015E0220701D5E9
:1003B000088011E008600FE02868011D29600068CE
:1003C000210502D580F8008006E0210702D5A0F8BB
:1003D000008001E0C0F8008038467EE72DE9FF5F2D
:1003E000D2E901A74FF00008916999461446DDF85B
:1003F00038B0464601988847054659EA0B0005D0B3
:1004000009E0A169761C019888470546216A2846BB
:1004100088470028F5D1681C03D05FEACA7005D070
:1004200015E04FF0FF3004B0BDE8F09F2068011DDB
:100430002160D0F800800AE05FEACA7001D108F8B4
:10044000015BA169761C7F1E019888470546002F35
:100450001ADD681C18D0B9F1000F0DD0E81705EBB4
:10046000D060421120F01F0059F822102A1A0120F2
:1004700090400142E0D107E0BBF1000FDCD1216ADE
:10048000284688470028D7D0E16901988847BBF102
:10049000000F07D1002E05DD5FEACA7002D10021EE
:1004A00088F80010A068B84203DDBBF1000F03D04C
:1004B00017B16FF00100B6E73046B4E72DE9FF4F02
:1004C000087881B09946FF2805D0491C2D2804D012
:1004D0000024002308E000230BE00124F9E703EBEC
:1004E000830300EB4303491C0878FF28F7D104B1CC
:1004F0005B4200200090147801462D2C01D02B2C5B
:1005000004D1521C2D2C12D0002400940025167802
:10051000FF2E0ED00A24A0FB04C801FB0481002793
:1005200000FB0711521C16EB0C006941EFE7012498
:10053000EBE7994450EA01020ED00024AA4D26466A
:10054000DFF8A88200F085FC82468B46B9F10000F6
:1005500009DAC9F100071BE001980021C0E9001188
:1005600005B0BDE8F08F074612E0F80707D0224635
:100570002B463046414600F03DF906468846224665
:100580002B461046194600F035F904460D467F10FB
:10059000002FEAD1B9F1000F324643465046594682
:1005A00002DA00F099F901E000F024F9009A0AB1AA
:1005B00081F00041019AC2E90001D1E72DE9FF4F26
:1005C0001F468DB0D7E901464FF0FF382E20454633
:1005D0004FF000090B90B9696D1C0E988847396A75
:1005E000824688470028F6D1BAF1FF3F0AD024F4AA
:1005F000D064002E11DDBAF12B0F08D0BAF12D0F07
:100600000BD102E0404611B0ABE744F48064B96915
:100610006D1C0E9888478246761E6946600501D596
:100620002D2000E02B208DF8000001F1010B0DF1D1
:10063000200809E0B9696D1C0E98884782460F981A
:1006400044F40074761E0560002E02DDBAF1300F0E
:10065000F0D00B998A453ED144F0800406E00F9912
:10066000681CA9F1010944F400740860B9696D1CA3
:10067000761E0E98884782463028F0D02BE00B99E2
:100680008A4505D1200603D444F08004761E18E084
:10069000504602F077FA08B30DF11301761E44F4C8
:1006A00000748B4508D2AAF130000BF8010B20062C
:1006B00007D5A9F1010003E0200602D409F10100E9
:1006C0008146A00502D50F99681C0860B9696D1CA8
:1006D0000E9888478246002ED1DC53E0002E51DD73
:1006E000BAF1650F02D0BAF1450F4BD1A00549D53B
:1006F000B9696D1C24F44074761E0E9888478246B2
:10070000002E0CDD2B2804D0BAF12D0F07D144F4B4
:100710008074B9696D1C0E9888478246761EE00584
:1007200001D52D2100E02B2108F8011BCDF82C80EC
:1007300021E00DF12901761E44F4007488450CD2A5
:10074000AAF1300010F0FF0088F8000002D10B99E8
:10075000884509D908F1010806E0E00501D52448DB
:1007600001E042F20F708146B9696D1C0E9888470E
:1007700082460F980560002E04DD504602F002FA12
:100780000028D6D1F9690E988847FF208BF8000021
:1007900088F800000020069007904B466A4608A99A
:1007A00006A8FFF78BFEA00502D46FF001002AE730
:1007B00014F0240F0AD0E00714D1DDE906123868DE
:1007C000031D3B600068C0E900120BE0DDE9060193
:1007D00000F011F90146E00704D13868021D3A60C3
:1007E0000068016028460EE7000024400000F03F4A
:1007F000F1D8FFFF2DE9FE4F81EA030404F0004425
:1008000021F0004100944FF0000B23F0004350EA28
:1008100001045ED052EA03045BD0C3F30A54C1F36F
:100820000A552C44A4F2F3340194A0FB0254C1F302
:10083000130141F48011C3F3130343F4801301FB4C
:10084000024400FB034E840A970A44EA815447EAB3
:100850008357A4FB076802958D0A05FB07854FEABD
:10086000932C04FB0C542705029D4FEA065847EAD7
:100870001637B5EB08056EEB070C870E920E47EAAC
:10088000811742EA8312A7FB0201B6EB0B0164EB6E
:1008900000042B0D43EA0C335E1844EB1C50DA467F
:1008A0005146E7FB0201C5F313044FEA0B3343EA59
:1008B00014534FEA0432019C43EA0603A4F10C04EA
:1008C0000294009CCDE900B400F0CEF903B0BDE87D
:1008D000F08F00200146F9E72DE9F04D81EA03048D
:1008E00004F0004B21F0004514464FF0000A23F0BD
:1008F000004150EA050220D054EA01021DD0C5F3A0
:100900000A570246C5F31303C1F31300C1F30A5695
:1009100040F4801543F48013A7EB0608101BD6465D
:1009200008F2FD3873EB050002D308F1010801E07D
:1009300092185B41B8F1000F03DA00200146BDE8D0
:10094000F08D00204FF48011064684460EE0171B00
:1009500073EB050705D3121B63EB050306434CEA53
:10096000010C49084FEA300092185B4150EA010738
:10097000EDD152EA030012D082EA040083EA0501B5
:10098000084305D0101BAB4106D20122002306E02C
:1009900000224FF0004302E06FF0010253101AEB07
:1009A00006004CEB085110EB0A0041EB0B01BDE8CF
:1009B000F04D00F04AB90EB540F2334102910021EA
:1009C000CDE900110A460B4600F04EF903B000BD18
:1009D00000F0004230F000400AD0C10D01F5607116
:1009E000C0F3160042EA0151C208400711437047A4
:1009F00000200146704701F0004330B421F000416F
:100A000050EA010206D00A0DA2F56072C1F313018B
:100A1000002A02DC30BC00207047440F44EAC104C5
:100A2000C100E01830BC00EBC25000F0D7B830B5C0
:100A30000B46014600202022012409E021FA02F59C
:100A40009D4205D303FA02F5491B04FA02F5284436
:100A5000151EA2F10102F1DC30BD2DE9F05F054663
:100A6000002092469B4688460646814640241BE06D
:100A7000284641464746224600F049FA53465A4620
:100A8000C01A914110D311461846224600F030FAA0
:100A90002D1A67EB01084F4622460120002100F085
:100AA00027FA17EB00094E41201EA4F10104DFDCF8
:100AB000484631462A464346BDE8F09F3A2800D2D0
:100AC000303820F02002412A01D3A2F137008842B9
:100AD00001D34FF0FF307047026811441378016072
:100AE00018467047D16004495161044911620021E0
:100AF0001161114600F03CBAD90A00085D0F0008E8
:100B0000426842B1016811F8013B23B1521EC0E9AD
:100B10000012184670470121C160881E7047426864
:100B20005AB1C368016843B983688B4205D0491E36
:100B3000521CC0E90012002070474FF0FF30704790
:100B40000FB4002300B589B00CA900910B996FF088
:100B50000042CB601E4B06931E4B07930423CDE946
:100B600001321D4A089202466B460020FFF726FD1F
:100B700009B05DF814FB70B586B006464FF0FF3043
:100B80000091CDE90101002015460C460490324643
:100B9000694604A8FFF7D4FF03460498211825B13D
:100BA00008B10A4600E022462A6000280DD0002B3A
:100BB00002DD0098884208D0081B0094CDE90104AA
:100BC0003246694604A8FFF7BBFF06B070BD0000BF
:100BD000010B00081F0B00085D0F00080029A8BFCB
:100BE0007047401C490008BF20F00100704710B456
:100BF000B0FA80FC00FA0CF050EA010404BF10BC0B
:100C0000704749B1CCF1200421FA04F411FA0CF137
:100C100018BF012121430843A3EB0C01CB1D4FEA70
:100C200000614FEA102042BF002010BC704700EB6B
:100C3000C35010440029A4BF10BC7047401C490099
:100C400008BF20F0010010BC704710B5141E73F1EE
:100C5000000408DA401C41F1000192185B411A437C
:100C600001D120F0010010BD2DE9F04D92469B46C8
:100C700011B1B1FA81F202E0B0FA80F2203290466E
:100C800000F036F904460F4640EA0A0041EA0B013B
:100C900053465A46084313D0114653EA010019D06F
:100CA000C8F14002504600F032F905460E46504663
:100CB0005946424600F01CF9084305D0012004E0E3
:100CC00020463946BDE8F08D0020054346EAE0762F
:100CD0002C4337430A986305E40AA0EB080000227E
:100CE000FD0A44EA47540A3002D500200146E9E7EC
:100CF000010510196941DDE9084500196941BDE8A0
:100D0000F04DA2E72DE9FE4F804681EA0300C00FB7
:100D10000C46009021F0004123F00045B8EB0200A2
:100D2000A94105D24046214690461C460B46024644
:100D300023F00040104347D0270DC7F30A00C3F348
:100D40000A510290401A019040286BDAC3F3130055
:100D500040F4801B0098924620B10023D2EB030A96
:100D600063EB0B0B01985946C0F14002504600F06E
:100D7000BFF806460D4650465946019A00F0D7F88E
:100D800010EB08006141002487EA115284EAE773FE
:100D90001A4340D0009A62B3019A012A4FEA0752DF
:100DA00015DC001B61EB02014FF0004202EA075222
:100DB000CDE90042001C41F5801132462B46FFF779
:100DC00053FF03B0BDE8F08F40462146F9E7001B12
:100DD00061EB0201001C41F5801300185B412018F3
:100DE000A2F5001747EB030140EAD570B6196D4133
:100DF00011E06D084FEA360645EAC0754FEA075222
:100E0000001B61EB0201001C41F5801149084FEA0B
:100E100030000019514132462B4603B0BDE8F04F77
:100E2000FFF713BF0098012240000023D0EB02021D
:100E300063EBE073009821464FEAE074B8EB0000E2
:100E400061EB0401E9E783F000435BE781F00041D7
:100E500058E70EB540F2334202920022CDE900225B
:100E60001346FFF701FF03B000BDC1F30A52C1F3FF
:100E7000130140F2FF3341F480119A4202DA00205C
:100E80000146704740F233439A42A2F2334202DCF9
:100E9000524200F03CB800F02BB8000030B5041E00
:100EA00071F1000404DB4FF00044404264EB0101A7
:100EB000141E73F1000405DB1C464FF00043524240
:100EC00063EB0403994208BF904230BD064C074DC6
:100ED00006E0E06840F0010394E80700984710340A
:100EE000AC42F6D3FFF766F9E8AB010808AC01089D
:100EF000202A04DB203A00FA02F1002070479140DA
:100F0000C2F1200320FA03F3194390407047202ACE
:100F100004DB203A21FA02F00021704721FA02F3A3
:100F2000D040C2F120029140084319467047202A60
:100F300006DBCB17203A41FA02F043EAE07306E001
:100F400041FA02F3D040C2F1200291400843194611
:100F50007047000000487047E4AB010810B5044634
:100F6000FFF7F8FF0068005D00F0010010BD000011
:100F70002DE9F34F8BB04FF0000801F10C000C4647
:100F80004FF0010B46460DF1080A019062690121FC
:100F900001989047051E2DD0252D2CD0216A884719
:100FA000C0B16269012101989047216A88470028F1
:100FB000F7D1411E62690198904700E0761CA16953
:100FC0000B988847216A88470028F7D1E1690B9878
:100FD0008847DBE7A1690B9888470746A84201D1FB
:100FE000761CD3E7E1690B9888477F1C02D1B8F1E2
:100FF000000F6FD046E1002762693D4639460198EF
:1010000090472A2804D1626901210198904701255F
:10101000DFF884926269012101989047A0F13001C4
:101020000A290AD24F45E5DC07EB870100EB4107AF
:10103000303FDFD445F01005ECE7E90601D46FF04E
:1010400000476C280AD04C2814D0682815D06A288C
:101050000DD074281CD07A281AD01DE062690121B5
:10106000019890476C2802D045F0040514E045F043
:1010700002050DE045F020050AE0626901210198B2
:101080009047682802D045F0080505E045F4006562
:101090006269012101989047C4E9015765283DD054
:1010A00019DC58287AD00CDC452837D004DC2528F8
:1010B00026D0412831D131E046282FD047282CD1E5
:1010C0002CE05B2877D0612828D063287CD0642866
:1010D00023D15AE0D0E06F2848D008DC66281DD024
:1010E00067281BD0692821D06E2816D127E07028E8
:1010F00045D0732868D0752847D078280DD14DE0A9
:10110000A1690B988847054625283FF469AFE16936
:101110000B9888476D1C3FF46AAFB3E023466A46DC
:101120006FF001000B99FFF749FA9EE045F040008F
:101130006060A80723464FF0000236D43EE0E8077F
:101140007FF447AF2068011D21600068290501D5A3
:1011500006701BE7290701D5068017E7A90703D505
:10116000F117C0E9006111E706600FE745F04000A4
:101170006060A80723464FF0080216D41EE040F630
:101180000E0125EA0100606016E045F04000606055
:10119000A80723464FF00A0207D40FE045F04000AD
:1011A0006060A80708D5234610226FF001000B9954
:1011B000AFF3008059E007E0234610226FF00100F2
:1011C0000B99FFF765F850E04FF000094F464B468A
:1011D000632802D05B2806D040E0E80601D4012055
:1011E000A06001273AE062690121019890475E28DA
:1011F00005D14FF00109626949460198904721697C
:1012000039B900210A46534643F82120491C0829D0
:10121000FADBB0B3216969B9C11700EBD162531190
:101220000AEB830122F01F02821A01200B68904012
:1012300003430B6062690121019890475D28E8D162
:10124000B9F1000F09D00020514651F82020D243B7
:1012500041F82020401C0828F7DB02AB224600970B
:101260006FF001000B99FFF7B9F800280CDA401C69
:1012700008D1BBF1000F05D04FF0FF300DB0BDE835
:10128000F08FFFE74046F9E7E90701D108F10108CF
:1012900006444FF0000B79E6CCCCCC0C70B58C1822
:1012A00010F8015B15F0070301D110F8013B2A117A
:1012B00006D110F8012B03E010F8016B01F8016B67
:1012C0005B1EF9D12B0705D40023521E0DD401F863
:1012D000013BFAE710F8013BCB1A921C03E013F82C
:1012E000015B01F8015B521EF9D5A142D8D3002061
:1012F00070BD000010B502F050F801220221134821
:1013000002F003F90021114802F03CF801221146D5
:101310000E4801F0FBFF03230A2200210B4802F0D4
:101320008CF800220121094802F064F801221146DC
:10133000064802F045F8054802F039F8012002F0AD
:1013400043FE024801F0CDFF10BD00000020014027
:1013500010B540F6024005F0F5FD41F2081005F029
:10136000F1FD012300220321064804F0E5FA4FF4C1
:10137000403001F0F5FFFFF7BDFF0121024802F008
:10138000B2F810BD000802400020014000BFFEE797
:101390007FB504460D464FF4805005F0D3FD4FF065
:1013A000804008F033FB684608F057FCADF8005069
:1013B0000020ADF804000294ADF8060069464FF035
:1013C000804008F0EBFB0121880708F033FC002285
:1013D00001211C2004F006FE4FF0804008F0D8FBED
:1013E0007FBD00007FB504460D4641F2030005F0C5
:1013F000A9FD0F4808F00AFB684608F02EFCADF87E
:1014000000500020ADF804000294ADF806006946D3
:10141000074808F0C3FB0121054808F00BFC002237
:101420000121322004F0DEFD014808F0B1FB7FBD50
:10143000000C00402DE9F04F2DED0A8B8DB0824657
:101440000E46144600200C9004F0E0F9CC4880EDE4
:10145000000A04F0E1F98DED0B0A002500200A9046
:10146000C8480078401CC7490870084600785045B5
:101470007DDB00200870C44805F016FEC2490879DB
:1014800002F070F80746C049487902F06BF88146CF
:10149000BD49887902F066F88046BB49087802F0B9
:1014A00061F80990B849487802F05CF80890B649AC
:1014B000887802F057F807900221B44801F0B2FF93
:1014C00000BF0221B14801F0B1FF0128F9D1AF48B6
:1014D000C06C80B20C900B98FFF77AFA41EC190BB4
:1014E0000C98FFF768FA41EC1C0B9FEDA90B53EC2D
:1014F000102BFFF77FF941EC1B0B9FEDA70B53EC73
:10150000102BFFF7E9F941EC1A0B53EC192BFFF7FD
:1015100071F941EC180BFFF76EFAA1490860002E33
:1015200079D0002CFCD001209E490870DDE907101D
:10153000CDE90001424649463846099B05F0CAFA02
:101540008346974890ED000ABCEEC00A10EE100AE0
:1015500085B29348D0ED000A00EE105AB8EE400A6A
:1015600030EEC00ADFED900A20EE200A00E002E132
:10157000BCEEC00A10EE100A80B20A904FEA1B605F
:101580008A4908704FEA1B4048704FEA1B20887058
:1015900081F803B0280A08714D710A98000A887111
:1015A0000A98C8717E4890ED000A7548D0ED000A8F
:1015B000B4EEE00AF1EE10FA3BDD0846C079897915
:1015C0007A4A5279794B1B79CDE90132CDE9031082
:1015D0007648C0780090754883784278017874A086
:1015E00001F0ACF901207D4908707048C27980791A
:1015F0006E4949796D4B1B79CDE90331CDE905027F
:101600006A48C1788078694A5278CDE90020029111
:101610006648037800E041E071A21E21794801F09C
:101620009DF977A001F08AF92021774804F03DF96F
:1016300033E05E48C0795D498A7949795B4B1B7913
:10164000CDE90131CDE903205848C07800905748D2
:101650008378427801786DA001F070F920216A4802
:1016600004F021F95148C1798079504A52794F4BA1
:101670001B79CDE90332CDE905014C48C0784B49CF
:1016800089784A4A5278CDE9002102904748037888
:1016900069A21E215B4801F061F96BE0002E5ED16A
:1016A000012C5CD101206D4908703D480068FFF7AE
:1016B0008FF941EC180B8DED048BCDE90198009763
:1016C00067A0DDE90732099901F038F9344890ED57
:1016D000000A2B48D0ED000AB4EEE00AF1EE10FA51
:1016E00012DD01203D49087025480068FFF770F9B8
:1016F00041EC180B53EC182B64A001F01FF92021CA
:10170000414804F0D2F803E020213F4804F0CBF830
:1017100063A001F013F900F035FB3B4661A21E21E6
:101720006448CDE9009801F019F91D480068FFF7F9
:101730004FF941EC180B8DED008B5FA21E21614823
:1017400001F00CF910235B4A0021084600F0C8FCA8
:1017500010235C4A1946002000F0C2FC0AE04CB994
:1017600000F010FB102358A20021084600F0B8FC3E
:1017700000F012FC00BF0DB0BDEC0A8BBDE8F08F8D
:101780006C00002070000020840700200020014031
:101790006666666666660A400000000000FEAF40AE
:1017A0006800002066000020000080473C07002001
:1017B000686964653A202530325825303258253022
:1017C000325825303258253032582530325825309D
:1017D0003258253032582A0D0A00000065000020DA
:1017E000253032582530325825303258253032587D
:1017F000253032582530325825303258253032586D
:101800002A00000098070020000002406869646513
:101810003A2025303258253032582530325825307C
:10182000325825303258253032582530325825303C
:1018300032580D0A00000000253032582530325849
:10184000253032582530325825303258253032581C
:101850002530325825303258000000006400002046
:10186000323025642D253032642D25303264202518
:101870003032643A253032643A253032642063686D
:10188000303D252E32665620000000004F766572EE
:101890004C696D69742028252E32662900000000ED
:1018A0000D0A0000253032643A253032643A253082
:1018B00032640000450700206368303D252E326603
:1018C000560000006307002073797374656D20690A
:1018D000646C65007047000010B5082003F0F0F854
:1018E000F8B120210F4803F0E2FF0F4800780128EB
:1018F00009D10EA007F0E4FD022007F0B7FB00209D
:1019000007F0AEFB08E009A007F0A8FD022007F0F1
:10191000ADFB002007F0A4FB07F0BAFB082003F0A2
:10192000C9F810BD0000024040000020286B657916
:10193000207072657373290010B541F20E1005F026
:1019400001FB0321042007F061FE01220021082091
:1019500003F052F802221146092004F043FB08204C
:1019600003F0A8F810BD00002DE9F04F89B08046C3
:1019700004A805F099FB9DF8140001F0F3FD18216F
:1019800090FBF1F201FB120000F0FF099DF8150039
:1019900001F0E8FD3C2190FBF1F201FB120000F0A8
:1019A000FF0A9DF8160001F0DDFD3C2190FBF1F2ED
:1019B00001FB120000F0FF0B9DF8110001F0D2FDB9
:1019C00005460DB9012004E00C2D01DD0C2000E0DE
:1019D000284605469DF8120001F0C4FD04460CB9E6
:1019E000012004E01F2C01DD1F2000E020460446FA
:1019F0009DF8100001F0B6FD07462B4607F5FA6288
:101A000007A140468DE8100E00F0BCFF06460E2EE2
:101A100003D1002009B0BDE8F08F4FF0FF30F9E7A7
:101A2000253034642D253032642D25303264202554
:101A30003032643A253032643A2530326400000096
:101A40002DE9F04F89B0804604A805F02DFB9DF8E4
:101A5000140001F087FD182190FBF1F201FB120048
:101A600000F0FF099DF8150001F07CFD3C2190FB82
:101A7000F1F201FB120000F0FF0A9DF8160001F0E0
:101A800071FD3C2190FBF1F201FB120000F0FF0B15
:101A90009DF8110001F066FD05460DB9012004E036
:101AA0000C2D01DD0C2000E0284605469DF81200B3
:101AB00001F058FD04460CB9012004E01F2C01DDA3
:101AC0001F2000E0204604469DF8100001F04AFD6A
:101AD00007462B4607F5FA6207A140468DE8100E2F
:101AE00000F050FF06460E2E03D1002009B0BDE8DD
:101AF000F08F4FF0FF30F9E7253034642530326441
:101B00002530326425303264253032642530326429
:101B10000000000000BFFEE710B54FF40073012283
:101B20001146124803F008FF4FF40073022201210E
:101B30000E4803F028FF4FF400710C4803F0B5FE87
:101B40004FF48071094803F0B0FE00F071F84FF4D3
:101B50000071064803F0A7FE00F06AF84FF48071A8
:101B6000024803F0A0FE00F063F810BD000402403C
:101B700010B54FF40073012211460E4803F0DCFE4D
:101B80004FF40073022201210A4803F0FCFE4FF4D7
:101B90000071084803F087FE4FF48071054803F098
:101BA00084FE00F045F84FF40071024803F07DFE1A
:101BB00010BD00000004024010B54FF400711B4836
:101BC00003F073FE00F034F84FF48071174803F00F
:101BD0006CFE00F02DF84FF4007301220021134831
:101BE00003F0AAFE05E0601CC4B2FE2C01DDFFF785
:101BF000BFFF4FF400710D4803F096FE0028F2D1AC
:101C00004FF48071094803F04EFE00F011F84FF4D4
:101C1000007301221146054803F08EFE4FF4007355
:101C200002220121014803F0AEFE10BD0004024073
:101C3000782000BF011EA0F1010290B2FAD17047D6
:101C400010B5EF2140F2F310FFF7A2FBEF2140F2B5
:101C5000F310FFF7C7FB10BD10B540F6044005F0C8
:101C600071F90823012200210A4803F065FE1023C0
:101C700001220021074803F05FFE402301220021DA
:101C8000044803F059FE802301220021014803F09B
:101C900053FE10BD0010024070B504460D462946A3
:101CA000204603F041FE80B9142002F08DF9294648
:101CB000204603F039FE40B900BF2946204603F014
:101CC00033FE0028F9D0012070BD0020FCE70000A1
:101CD00010B5044609480088401C08490880084699
:101CE0000088A04209DB03F00BFD30B1002003495E
:101CF00008801021024803F0DAFD10BD0400002026
:101D00000000024010B54FF4406005F01BF91023AD
:101D1000002201210E4803F00FFE102302220021B1
:101D20000B4803F030FE1021094803F0BCFD2023CE
:101D300000220121064803F0FFFD2023022200219A
:101D4000034803F020FE2021014803F0ACFD10BD44
:101D50000000024000BFFEE77047000010B50028F9
:101D600007DA0A07140E054A00F00F031B1FD454AC
:101D700003E00A07130E024A135410BD18ED00E0E9
:101D800000E400E070B500240CE0002506E000202F
:101D9000074901EB85010855681CC5B2802DF6DBAB
:101DA000601CC4B2042CF0DB00F0F6F870BD00003B
:101DB0005C02002070B50B46CE1701EB5676C6F3D9
:101DC000C702CE1701EB5676F610A1EBC606F4B2A9
:101DD0000123A340DDB20E4B03EB80039B5CDB438E
:101DE0000B4E06EB8006B354094B03EB80039B5C60
:101DF0002B43074E06EB8006B354054B03EB8003E1
:101E00009B5CDB43024E06EB8006B35470BD0000C2
:101E10005C02002070B50A46CE1701EB5676C6F379
:101E2000C703CE1701EB5676F610A1EBC606F4B247
:101E30000122A240D5B2054A02EB8002D25C2A43BD
:101E4000024E06EB8006F25470BD00005C020020DA
:101E500010B540F6014005F075F84FF4807301228B
:101E600011464C4803F068FD4FF4807302220121B3
:101E7000484803F088FD4FF48071464803F015FD93
:101E80004FF4007301221146424803F055FD4FF410
:101E90000073022201213F4803F075FD4FF40071E9
:101EA0003C4803F002FD4FF4FA7002F08DF8002177
:101EB000AE2000F036F90021084600F032F900218A
:101EC000102000F02EF90021402000F02AF9002116
:101ED000812000F026F90021CF2000F022F9002116
:101EE000A12000F01EF90021C82000F01AF90021FD
:101EF000A62000F016F90021A82000F012F9002118
:101F00001F2000F00EF90021D32000F00AF9002173
:101F1000084600F006F90021D52000F002F9002162
:101F2000802000F0FEF80021D92000F0FAF800210E
:101F3000F12000F0F6F80021DA2000F0F2F800219C
:101F4000084600F0EEF80021DB2000F0EAF800215E
:101F5000402000F0E6F80021202000F0E2F8002107
:101F6000022000F0DEF800218D2000F0DAF80021D8
:101F7000142000F0D6F80021A42000F0D2F80021AF
:101F8000A62000F0CEF80021AF2000F0CAF8FFF73D
:101F9000F9FE10BD0004024070B500241CE004F1FD
:101FA000B001C8B2002100F0BCF80021084600F0E2
:101FB000B8F80021102000F0B4F8002508E0084926
:101FC00001EB8501085D012100F0ABF8681CC5B28A
:101FD000802DF4DB601CC4B2042CE0DB70BD00007B
:101FE0005C0200202DE9FF4F81B080460E461C4662
:101FF00000962046E31704EB5373DB1021464FEAAB
:10200000E47C04EB5C7C4FEAEC0CA4EBCC0CBCF164
:10201000000F02D04FF0010C01E04FF0000C6344C0
:10202000224604EBD27C4FEA6C0C03FB0CF303F06A
:10203000FF0B03982038C7B2002547E00C2C07D1CE
:1020400007EB4700234901EB800010F805A014E0DE
:10205000102C05D1204800EB071010F805A00CE06B
:10206000182C07D107EBC7001C4901EB800010F8C2
:1020700005A002E005B0BDE8F08F4FF000091FE0B9
:102080000AF0800020B131464046FFF7C3FE03E06E
:1020900031464046FFF78EFE4FEA4A604FEA106A2B
:1020A000701CC6B20098301AA04205D1009E08F1FB
:1020B000010000F0FF0806E009F1010000F0FF094F
:1020C000B9F1080FDCDB00BF681CC5B25D45B5DBAC
:1020D00000BFCFE7CAA800083EAD00082EB3000835
:1020E000F0B506460F4614461D4613E022782B46EF
:1020F00039463046FFF776FF284605EBD07106EBF0
:102100006101CEB2C5F18000B04202DA0026B81CEF
:10211000C7B2641C2078202802DB20787E28E5DD09
:10212000F0BD70B505460C46FFF7F6FC782000F0D0
:1021300001F9FFF741FD1CB1402000F0FBF802E07F
:10214000002000F0F7F8FFF737FD284600F0F2F81E
:10215000FFF732FDFFF70CFD70BD7047F8B503F0D7
:10216000C3FA002864D001F035FC03F05BFB0446A1
:1021700003F046FB054603F0C9FA06462246294607
:10218000FFF758F92B480078002851D02A480078EA
:1021900098B12A48FFF754FC2948FFF7E5FB294886
:1021A00005F0ECF92748264B244A27490090274898
:1021B00005F000FA0020204908702548007898B101
:1021C0002448FFF73DFC2448FFF7CEFB234803F0EB
:1021D00075FF2248204B1F4A21490090214803F0F7
:1021E00099FF00201A4908701F48007898B11F48CD
:1021F000FFF726FC1E48FFF7B7FB1E4803F0E4FB81
:102200001C481B4B194A1C4900901C4803F000FC59
:102210000020154908701A48007848B1194803F0A1
:1022200097FC1849184803F02DFE00201449087047
:10223000F8BD00008800002064000020500C002041
:10224000A1000020BF000020100C00208C00002006
:1022500065000020AE0C00200C0100202A010020A7
:102260006E0C0020F1000020660000200C0D002004
:10227000710100208F010020CC0C00205C010020A7
:1022800067000020DF0100202A0D002010B503F0B8
:1022900031FAB8B14FF4FA70FFF71AFD01F0A0FB64
:1022A00009480078401C084908700846007818283A
:1022B00003DB00200870FFF76FFE05F0F7F96420DC
:1022C000FFF706FD10BD00003002002010B541F2FE
:1022D0001C0004F037FE03F0C3FF04F0B3FF0F4807
:1022E0000068C0F301200E4908600E48006843F200
:1022F000F021884202D10A48006810B904F0F0FFCA
:1023000008E041F61B5004F04BFD18B941F61A5095
:1023100004F046FD04F096FC10BD00007038024049
:10232000340000205028004010B506F04BF810BDD6
:102330007047000070B50446002524E04FF480711A
:10234000124803F0B0FA04F0800028B14FF4007195
:102350000E4803F0AAFA04E04FF400710B4803F0B2
:10236000A2FAFFF765FC4FF48071084803F09DFA6C
:10237000FFF75EFC4FF48071044803F094FA6006A6
:10238000040E681CC5B2082DD8DB70BD00040240E5
:1023900010B501F023FE10BD08B53048006840F4C8
:1023A00070002E4908602E48006840F001002C495A
:1023B000086000BF2A48006800F002000028F9D039
:1023C00000BF27480830006840F0800024490831E9
:1023D00008600020009002E00098401C00900098E7
:1023E0005028F9D31E480830006840F090001C497E
:1023F000083108600020009002E00098401C009026
:1024000000985028F9D300BF15480830006820F024
:102410000300134908310860114800681149084059
:102420000F4908600846006820F4802008600020FA
:102430000B490831086000BF0948083000680020D7
:102440000028F9D108480649091D08600020044900
:102450000C31086007F0B4F908BD000088ED00E019
:1024600000380240FFFFF6FE1030002410B507F0E0
:10247000ABF9FFF747FCFFF7EFFBFFF75DFA00F062
:1024800071F800221146252003F0ACFD40F2053121
:102490000B4807F04CFD4FF4C06003F005FE00222E
:1024A0001146312003F09EFDFEF752FFFFF7C8FBF7
:1024B000FFF7CEFC06F098FEFFF708FF10BD000006
:1024C0000010014010B50121034803F02DFA08B9AE
:1024D000012010BD0020FCE70000024010B50121E2
:1024E000880707F0AEFB012803D10121800707F020
:1024F000A5FB08480088401C00B206490880084631
:10250000B0F90000052804DB002008800120024902
:10251000087010BD3A0000203800002010B50121DD
:102520000D4807F08EFB012803D101210A4807F06E
:1025300085FB0A480088401C00B20849088008460C
:10254000B0F90000B0F57A7F04DB0020088001209C
:102550000349087010BD0000000C00403C00002042
:102560003900002010B54FF4406004F0EBFC41F25C
:10257000041004F0E7FC4FF4C0620721284803F080
:1025800063F94FF4007301220221254803F0D4F9C6
:102590004FF4007302220021214803F0F4F94FF4B4
:1025A0008063002211461E4803F0C6F94FF4806391
:1025B000022203211A4803F0E6F91A4807F0FCFB4F
:1025C0000021184807F058FD0021164807F044FD87
:1025D0000021144807F0E1FC4FF4E131114807F005
:1025E0006DFB04210F4807F02FFD08210D4807F06F
:1025F0003BFD00210B4807F083FC0021094807F050
:1026000075FC084807F046FC40F20531054807F024
:102610008EFC00221146252003F0E4FC10BD0000D2
:10262000000002400010014010B51749174807F09C
:1026300098FC40B3154807F0B5FBC4B20D2C01D08F
:102640000A2C0BD100201249124A127888540846ED
:1026500003F010FE00200F4908700FE00D480078CD
:10266000632808DA0B4801780078401C094A10708A
:102670000748445402E00020064908700249034814
:1026800007F062FC00BF10BD05030500001001400B
:10269000D80400203F00002000BFFEE72DED028B94
:1026A00082B04FF4405004F0B7FCBCEEC00A10EE0C
:1026B000100A574908704FF440500978491C00EE41
:1026C000101AB8EEC00A04F0E3FF0525002400BF8D
:1026D000002001F0A4FE04461CB1681E80B2051E55
:1026E000F6D14C49002002F0A7FB002C47D1012075
:1026F0004949087049A001F0EAFA4BA001F0E7FA55
:102700004DA001F0E4FA4EA001F0E1FA00204F499B
:1027100008704F4908704F4908704F48FFF790F90B
:102720004EA04D494FA355A2CDE900104021554878
:1027300000F014F95448FFF783F948A0524953A315
:102740004EA2CDE900104021574800F007F9574844
:10275000FFF776F941A0554955A348A2CDE90010ED
:102760004021594800F0FAF83CA02949097850A3C3
:1027700056A2CDE900104021564800F0EFF8244859
:10278000007810B3002004F047FCBCEEC00A10EE45
:10279000100AC6B2304606F06FFC4FF4805004F0C9
:1027A0003BFCB0EE408A06F079FC4FF4005004F098
:1027B00033FCB0EE408A06F065FCB1EE040A06F088
:1027C0006DFCB2EE040A06F05DFC43A000F0B6F822
:1027D00047A000F0B3F84FF4804004F027FC064611
:1027E000314649A000F0AAF84BA000F0A7F8FFF787
:1027F000C9FA10234EA200210846FFF771FCFFF72B
:10280000CBFB03E0FFF742FDFFF7A8FCFAE700006F
:102810002F020020DC08002088000020303A2F73AF
:10282000616D706C65000000303A2F6F7665724CF8
:10283000696D697400000000303A2F6C6F6700000A
:10284000303A2F6869646544617461008900002032
:102850008A0000208B000020500C00202E74787419
:1028600000000000303A2F73616D706C652F73614A
:102870006D706C6544617461000000002573257300
:1028800025730000100C0020AE0C0020303A2F6F92
:102890007665724C696D69742F6F7665724C696DDF
:1028A00069744461746100006E0C00200C0D0020FE
:1028B000303A2F68696465446174612F68696465A2
:1028C0004461746100000000CC0C00202573256475
:1028D000257300002A0D00200D0A3D3D3D3D737912
:1028E0007374656D20696E69743D3D3D3D0D0A0050
:1028F0004465766963655F49443A323032352D4329
:10290000494D432D000000007465616D5F696420CE
:10291000256C640D0A0000003D3D3D3D73797374E4
:10292000656D2072656164793D3D3D3D0D0A000095
:1029300073797374656D2069646C65000FB4054B21
:1029400010B503A9044A029800F024F910BC5DF800
:1029500014FB0000F9550008340200200FB41CB528
:102960000A46521ECDE9000207A9054B6A460698A1
:1029700000F010F9009A002111701CBC5DF814FBE6
:10298000C33200080FB4084B10B504A902AA03987B
:1029900000F000F9044602A9002000F09DFC20464A
:1029A00010BC5DF814FB0000D932000800000000E4
:1029B00030B583B0044600F017F89FED090B0546CB
:1029C0008DED000B002221466846FEF7D4F828461C
:1029D00000F020F89DED000B03B030BD00000000BA
:1029E000000000000000000001480068704700007F
:1029F0003802002002E008C8121F08C1002AFAD1DC
:102A000070477047002001E001C1121F002AFBD16E
:102A1000704700000149086070470000380200203C
:102A20002DE9FF5FDDE90220010DDDF838B002433A
:102A300018D044F61050A1F2FF3141430D140F9805
:102A4000012820D0A5EB0B00401C5FEA000A4FF0E4
:102A50000004474EDFF81C91A046504616D5CAF137
:102A6000000728E00F98012443A2012808D0002184
:102A700000980F9BC0E90021C0E90243BDE8FF9F19
:102A80006FEA0B01F4E7CBF10000DEE7074612E046
:102A9000F80707D02246334640464946FDF7AAFECE
:102AA000804689462246334610461946FDF7A2FE67
:102AB00004460E467F10002FEAD1DDE90201BAF18B
:102AC000000F42464B4602DAFDF794FE01E0FDF7A7
:102AD00003FF04460E460022284BFEF7DFF903D819
:102AE0004FF0FF30014607E00022254B20463146DB
:102AF000FEF708F9FEF7B9F9102409E0002C0ADB0B
:102B00000A220023FDF7A9FF019B30321A55641EEB
:102B100050EA0102F2D1641C019AC4F11103144479
:102B20000F9A012A03D0012208430DD10AE008437D
:102B300004D000204FF0110B0F9080E7A3EB0B05A2
:102B40006D1E0DE05B4504DD4FF0000205F101054F
:102B500004E003DA4FF00002A5F10105002AECD0F1
:102B600000980F99C0E90231C0E9004586E70000EE
:102B7000000024400000F03F300000000000F0435F
:102B80000000E03F30380A2801D2012070470020C1
:102B9000704700002DE9FF4F95B09B4689460646D9
:102BA00000250FE2252877D100242746F84A012185
:102BB000059400E0044316F8013F203B01FA03F0BE
:102BC0001042F7D130782A2811D06FF02F033078D7
:102BD000A0F13002092A16D8059A44F0020402EB4B
:102BE000820203EB42021044761C0590EFE759F88D
:102BF000042B0592002A03DA504244F40054059055
:102C000044F00204761C30782E2816D116F8010FF5
:102C100044F004042A280DD06FF02F023078A0F180
:102C20003003092B09D807EB870302EB4303C718CE
:102C3000761CF3E759F8047B761C30786C280FD0AB
:102C400006DC4C2817D068280DD06A2814D104E07F
:102C5000742810D07A280FD10DE044F400140AE053
:102C600044F4801401E044F440147278824202D1AA
:102C700004F58014761C761C307866280BD013DCA3
:102C8000582877D009DC002875D04528F6D046288A
:102C9000F4D047281AD19DE118E0632835D0642884
:102CA00079D0652812D195E1702873D008DC6728A7
:102CB000F1D069286FD06E280DD06F2806D1B5E00D
:102CC00073282CD0752875D0782874D05A46179957
:102CD00090476D1C75E1C4F30250022809D0032807
:102CE0000DD0D9F8001004280DD00D6009F10409A9
:102CF00067E1D9F80010EA17C1E90052F6E7D9F800
:102D000000100D80F2E70D70F0E719F8041B8DF844
:102D1000001000208DF80100EA46012003E059F878
:102D200004AB4FF0FF3061074FF0000102D40DE01B
:102D300008F101018846B9420FDA8045F8DB1AF83C
:102D400008100029F4D108E008F101018846814209
:102D5000FADB1AF808100029F6D105985B46A0EBBB
:102D6000080721463846179A00F094FA284400EBE9
:102D7000080507E04DE029E10DE01AF8010B5A467D
:102D800017999047B8F10108F7D25B4621463846BB
:102D9000179A13E142E00A220092C4F302524FF064
:102DA000000A022A08D059F804CB032A4FEAEC7132
:102DB0000AD00DE029E02AE009F1070121F007021D
:102DC000F2E802C1914609E00FFA8CFC4FEAEC717F
:102DD000042A03D14FFA8CFC4FEAEC71002907DA80
:102DE0000A460021DCF1000C61EB02012D2202E019
:102DF000220504D52B228DF80420012203E0E207EE
:102E000001D02022F7E7904659E00A2102E0102283
:102E10000DE010214FF0000A00910BE010224FF05E
:102E2000000A44F004040827009203E008224FF04F
:102E3000000A0092C4F30252022A05D059F804CBCA
:102E40000021032A08D009E009F1070121F0070257
:102E5000F2E802C1914605E01FFA8CFC042A01D178
:102E60000CF0FF0C4FF00008220728D5702806D080
:102E7000009B83F0100353EA0A0305D00EE04022C2
:102E80008DF80420012208E05CEA010206D030221D
:102E90008DF804208DF8050002229046009B83F0F7
:102EA000080353EA0A030AD15CEA010201D162076E
:102EB00005D530228DF804204FF001087F1E5828D8
:102EC00004D034A003900EA802900DE036A0F9E7DC
:102ED00053466046009AFDF7C0FD84460398825C25
:102EE0000298401E029002705CEA0100F0D1029844
:102EF00006A9081A00F1200A600702D524F48034DC
:102F000000E00127574502DDA7EB0A0000E00020A2
:102F100000EB0A01009005984144401A0590E00337
:102F200006D45B462146179A059800F0B3F905448C
:102F3000002706E001A85A46C05D179990476D1C0E
:102F40007F1C4745F6DBE0030CD55B462146179A0C
:102F5000059800F09FF9054404E030205A4617997F
:102F600090476D1C0099481E00900029F5DC08E090
:102F7000029802995A460078491C02911799904785
:102F80006D1CBAF10001AAF1010AF1DC65E1000053
:102F9000092801003031323334353637383961622F
:102FA00063646566000000003031323334353637F3
:102FB00038394142434445460000000000F058F9CA
:102FC0000544761C307800287FF4ECAD19B0284613
:102FD000BDE8F08F620700D4062709F1070222F04E
:102FE000070CFCE80223E14603F000485FEA080C06
:102FF00002D00FF2702C0DE05FEA045C02D50FF2F4
:10300000682C07E05FEAC47C02D00FF2602C01E07C
:10301000AFF2700C4FF0FF3823F00043CDF850C0F2
:1030200065280CD006DC452809D046281DD0472845
:103030003DD13DE0662818D067287ED138E00021D8
:10304000112F01DB112000E0781CCDE9000106A959
:103050000EA8FFF7E5FCDDE90F010E9A03910021B0
:10306000009207F1010A04914DE04FF000400097F3
:10307000CDE9011006A90EA8FFF7D2FCDDE90F0289
:1030800003920E9B11990022DDF80CA0009304928C
:1030900011B9791C00EB010AB7EB0A0004D4C0F1A6
:1030A000FF3007F1010A0490AAEB0700019044E009
:1030B000012F00DA01270021112F01DD112000E08E
:1030C0003846CDE9000106A90EA8FFF7A9FCDDE905
:1030D0000F010E9A0391002104910092BA46210734
:1030E0000CD40399514500DA8A46BAF1010F05DD87
:1030F000009AAAF10101515C302908D0B84202DAE5
:1031000010F1040F06DA0121CDE9011015E0AAF152
:103110000101E9E7002805DC049901440491AAEBC8
:10312000000102E0411C514500DD8A460499401A25
:10313000401C01904FF000400290200704D40198F9
:10314000504501DBCDF8048000208DF84F00029837
:103150000DF14F07B0F1004F25D02B200E900298B3
:103160004FF0020800280CDA404202902D200E9009
:1031700007E00A210298FDF75AFC3031029007F867
:10318000011DB8F10001A8F10108F2DC0298002845
:10319000EFD1791E0E980870307800F0200040F0D2
:1031A000450007F8020D12A8C01B00F1070814988B
:1031B000007800B1012000EB0A01019801EBE071F9
:1031C00005984144401A401E0590E00306D45B4632
:1031D0002146179A059800F05DF805441498007888
:1031E00018B15A46179990476D1CE00324D55B46E9
:1031F0002146179A059800F04DF805441CE0049804
:10320000002807DBDDE90301884203DD0098405C0C
:10321000179901E0179930205A469047049805F114
:103220000105401C04900198401E019004D12E20FD
:103230005A46179990476D1CBAF10001AAF1010A8C
:10324000DDDC05E017F8010B5A46179990476D1C15
:10325000B8F10001A8F10108F4DC5B462146179A99
:103260000598ABE62D0000002B00000020000000B8
:103270002DE9F041044600251E461746880404D473
:1032800005E039462020B0476D1C641EF9D528465C
:10329000BDE8F0812DE9F041044600251E46904628
:1032A000C80301D5302700E02027880404D505E0B5
:1032B00041463846B0476D1C641EF9D52846BDE826
:1032C000F0814A68002A06D00A68531C0B6010700F
:1032D0004868401E486070470A68531C0B601070B5
:1032E0007047816841F00801816000BF816801F08A
:1032F00008010029FAD1816841F00401816000BF12
:10330000816801F004010029FAD1704730B5012924
:1033100002D0022920D10FE06AB1102A0BD8C36A6B
:1033200023F47003C362C36A541E4FF4700505EAA8
:1033300004542343C36210E06AB1042A0BD8836BA0
:1033400023F440138363836B541E4FF4401505EA46
:1033500004542343836300E000BF00BF30BD00007E
:103360000649096821F4E021054AC2F80413114610
:10337000D1F804130143C2F8041370470423014039
:103380000020014021B1826842F40062826003E0C3
:10339000826822F400628260704710B540F608101F
:1033A00003F0F4FD40F6081003F0DEFD10BD816867
:1033B00001F0010119B9816841F001018160704794
:1033C000012902D0022912D108E0836823F040537A
:1033D0008360836843EA0273836009E0836823F4AF
:1033E00040138360836843EA0253836000E000BFB8
:1033F00000BF7047012902D0022910D107E083687D
:1034000023F07063836083681343836008E08368FC
:1034100023F47023836083681343836000E000BF5C
:1034200000BF704702688A4302607047024600206E
:1034300013680B4003B101207047F0B51D46062903
:103440000CDA436B01EB81071F26BE40B34301EB4F
:10345000810602FA06F63343436322E00C290EDAB2
:10346000036B8E1F06EB86071F26BE40B3438E1FDD
:1034700006EB860602FA06F63343036311E01029D1
:103480000FDAC36AA1F10C0606EB86071F26BE40C1
:10349000B343A1F10C0606EB860602FA06F63343A7
:1034A000C3620A2A0CDA046902EB42070726BE400F
:1034B000B44302EB420605FA06F63443046111E018
:1034C000122A0FDCC468A2F10A0606EB460707269B
:1034D000BE40B443A2F10A0606EB460605FA06F61C
:1034E0003443C460F0BD012902D002290AD104E0AE
:1034F000826842F08042826005E0826842F4800285
:10350000826000E000BF00BF7047AAB101F4807381
:103510001BB1436843F48073436001F480631BB1C3
:10352000436843F48063436001F00203CBB18368D6
:1035300043F00203836014E001F480731BB143681D
:1035400023F48073436001F480631BB1436823F468
:103550008063436001F002031BB1836823F0020320
:1035600083607047014600BF080900EB80004200FD
:1035700001F00F001044C0B270470146002203E082
:10358000521CA1F10A00C1B20A29F9DA100741EA76
:103590001060704770B504460D46607801232A46D6
:1035A00004F1340100F081FF08B1032070BD94F8EC
:1035B000321294F8330241EA00204AF6552188423B
:1035C00001D00220F2E794F86D00010694F86C0037
:1035D00041EA004194F86B0041EA002094F86A1037
:1035E000084320F07F400E49884201D10020DDE7EA
:1035F00094F88900010694F8880041EA004194F8A3
:10360000870041EA002094F88610084320F07F40AC
:103610000349884201D10020C8E70120C6E7000025
:1036200046415400024600E0521C107810B1107858
:103630008842F9D1107870472DE9F74F88B0089883
:1036400000680190019800783038079007980928A1
:103650000AD8019840783A2806D10198801C019038
:1036600008990198086002E0D5480078079007980B
:1036700018B10B200BB0BDE8F08FD249079851F874
:103680002040099804600CB90C20F3E7207878B149
:10369000607800F032FF804608F0010040B90A98D7
:1036A00020B108F0040008B10A20E3E70020E1E7B8
:1036B0000020207007986070607800F0B0FE8046AF
:1036C00008F0010008B10320D4E70A9820B108F0FF
:1036D000040008B10A20CDE74FF0000B5946204600
:1036E000FFF758FF054600BF012D21D14FF0000A1A
:1036F000BAF1000F03D0AAF1010000F0FF0A4FF465
:10370000DF7000EB0A1104F134000F18387978B13A
:10371000F87A0106B87A41EA0041787A41EA002055
:10372000397A40EA010B59462046FFF733FF054638
:10373000032D01D101209DE70DB10D209AE73F2017
:10374000015D94F8400041EA0020B0F5007F01D00F
:103750000D208FE74A20015D94F84B0041EA0029D3
:10376000B9F1000F0ED194F85B00010694F85A00ED
:1037700041EA004194F8590041EA002094F85810B9
:1037800040EA0109C4F820904420065DE670012E4D
:1037900003D0022E01D00D206CE709FB06F9412071
:1037A000005D0646A07016B1701E304008B10D20B5
:1037B00060E74520015D94F8460041EA0020208141
:1037C000207A00F00F0008B10D2053E74720015D7B
:1037D00094F8480041EA00200690069870B994F8E1
:1037E0005700010694F8560041EA004194F855004C
:1037F00041EA002094F85410084306904220015DED
:1038000094F8430041EA00200290029808B90D2084
:1038100030E702984844218900EB11100590DDE95A
:103820000501814201D20D2024E7DDE90510401A8F
:10383000A178B0FBF1F00490049808B90D2019E7C5
:10384000012540F6F6710498884200D302254FF610
:10385000F6710498884200D303250498801CE06127
:1038600005985844E062029858446062032D16D1CE
:10387000208908B10D20FDE694F86300010694F854
:10388000620041EA004194F8610041EA002094F8A6
:1038900060100843A062E0698000039014E0208972
:1038A00008B90D20E6E6606A4844A062022D02D104
:1038B000E069400007E0207F00F00100E16901EBD2
:1038C000410100EB51000390216A039800F2FF10C0
:1038D000B1EB502F01D20D20CCE64FF0FF3020612C
:1038E0000020E060032D5CD1607194F8641094F8BE
:1038F000650041EA0020584460616078012304F1CA
:103900003401626900F0D1FDF0BB94F8321294F8F2
:10391000330241EA00204AF65521884241D137203E
:10392000005D01063620005D41EA00413520005D62
:1039300041EA002094F8341008432349884230D1EA
:1039400094F81B02010694F81A0241EA004194F827
:10395000190241EA002094F8181208431B498842D2
:103960001FD194F82302010694F8220241EA004193
:1039700094F8210241EA002094F820120843E06004
:1039800094F81F02010600E00BE094F81E0241EAE1
:10399000004194F81D0241EA002094F81C120843EB
:1039A000206125700A480088401C80B208490880C0
:1039B000E080002020632071A06100BF5AE6000073
:1039C000520000204C00002052526141727241614D
:1039D0005000002000200149087070473900002085
:1039E0000020014908707047380000200246891EF7
:1039F000D069801E884201D8002070479378D06A31
:103A000001FB0300F9E7000070B51D25084C00E03C
:103A1000641E802005F0B8FA08B9002CF8D114B95A
:103A20001325284670BD034805F0A8FA2846F9E793
:103A3000A0860100FF07C0002DE9F04705460C46AF
:103A4000207820F04000401E00EB800101EBC00612
:103A500000274FF0010800BF1A48C05D205C1949DB
:103A6000C95D2144497840EA0129B8F1000F10D01E
:103A7000484601F007FD8046FF2E07D23146761CEE
:103A800035F8110001F0FEFC404508D00020BDE8EB
:103A9000F0874FF6FF70814501D00020F7E7781CD2
:103AA00007460D28D8D3207800F0400038B1B8F18F
:103AB000000F04D035F8160008B10020E7E7012018
:103AC000E5E70000A5C0000810B506F06FFA10BDCC
:103AD00070B52DED028B4FF4805003F09DFA10EE7F
:103AE000104A4FF4005003F097FA10EE105A0DA050
:103AF000FEF724FF2046FCF76BFF41EC180B53EC5C
:103B0000182B10A0FEF71AFF2846FCF761FF41ECC6
:103B1000180B53EC182B0FA0FEF710FFBDEC028B17
:103B200070BD00007265616420706172616D6574C2
:103B30006572732066726F6D20666C6173680D0A22
:103B400000000000726174696F203D20252E3266EE
:103B50000D0A00006C696D6974203D20252E3266C7
:103B60000D0A000010B52DED028B15480068FCF71A
:103B70002FFF41EC180B53EC182B12A0FEF7DEFEC2
:103B800014480068FCF724FF41EC180B53EC182B89
:103B900011A0FEF7D3FE4FF48050094991ED000AC1
:103BA00003F076FD4FF400500A4991ED000A03F04E
:103BB0006FFD0DA0FEF7C2FEBDEC028B10BD000034
:103BC00054000020726174696F203D20252E3266FA
:103BD0000D0A00005C0000206C696D6974203D20B6
:103BE000252E32660D0A00007361766520706172C1
:103BF000616D657465727320746F20666C617368A3
:103C00000D0A00002DE9F04704468946B9F1000F7E
:103C100006D1E76817B1E069B84211D801270FE073
:103C20004946204601F078FD0646022E02D20120C8
:103C3000BDE8F087E069B04201D93046F8E74F4669
:103C40003D4600BF6D1CE069A84204D80225BD4274
:103C500001D90020ECE72946204601F05DFD06462B
:103C600006B909E0701C08B1012E01D13046DFE72A
:103C7000BD42E7D10020DBE700BF6FF0704229466C
:103C8000204602F0FFFC8046B8F1000F08D1B9F1E0
:103C9000000F05D02A464946204602F0F3FC804634
:103CA000B8F1000F09D1E5602069401C68B12069B6
:103CB000401E20610120607107E0B8F1010F02D1C0
:103CC0004FF0FF3000E0012005462846B0E770B510
:103CD0000546284600F0E4FF044604B100BF204634
:103CE00070BD00002DE9F34F83B08346049800684F
:103CF000019002E00198401C0190019800782F2863
:103D0000F8D0019800785C28F4D0DBF81C900025EE
:103D1000A84600BF404608F1010801990C5C202C20
:103D200003DB2F2C01D05C2C00D139E0FF2D03D315
:103D3000062005B0BDE8F08FE4B2812C02DBE0B2D2
:103D40009F2805DDE0B2E02814DBE0B2FC2811DC9E
:103D5000404608F1010801990E5C402E01DB7E2EE1
:103D600005DD802E01DBFC2E01DD0620E1E706EB00
:103D7000042084B20121204601F046FB04460CB920
:103D80000620D6E7802C06DA21468AA0FFF74AFCF7
:103D900008B10620CDE728466D1C29F81040B9E788
:103DA00000BF019800EB080104980160202C01DAA3
:103DB000042000E000200746012D04D1681E39F8D8
:103DC00010002E280BD0022D24D1681E39F81000C7
:103DD0002E281FD1A81E39F810002E281AD1002035
:103DE00029F8150082460AE0AA4501D22E2000E0FB
:103DF0002020DBF8181001F80A000AF1010ABAF1D4
:103E00000B0FF1D347F02000DBF8181001F80A007F
:103E100000208EE708E0681E39F81040202C02D000
:103E20002E2C00D002E06D1E002DF4D100BF0DB984
:103E300006207EE7002029F815000B222021DBF860
:103E4000180002F08CF84FF0000801E008F10108BA
:103E500039F818002028F9D039F818002E28F5D0A4
:103E6000B8F1000F01D047F0030700E06D1E25B147
:103E7000681E39F810002E28F8D14FF0000A564677
:103E80000820029000BF404608F1010839F81040B0
:103E900004B962E0202C03D02E2C04D1A84502D016
:103EA00047F00307EFE70298824501D2A84514D1F5
:103EB00002980B2802D147F003074EE0A84501D035
:103EC00047F00307A84500D947E0A8464FF0080A85
:103ED0000B200290B006060ED5E7802C09DB2046A9
:103EE00001F0D0FA0021009001F08EFA044647F06C
:103EF0000207FF2C10DD0298401E504504D847F001
:103F00000307DDF808A0BEE7221250460AF1010AB5
:103F1000DBF818301A5419E024B1214628A0FFF725
:103F200081FB18B15F2447F003070FE0412C04DB4D
:103F30005A2C02DC46F0020608E0612C06DB7A2CE3
:103F400004DC46F00106A4F1200084B250460AF1D8
:103F5000010ADBF818301C5495E700BFDBF81800A5
:103F60000078E52803D10520DBF8181008700298C6
:103F7000082801D1B006060E06F00C000C2803D06C
:103F800006F00300032801D147F0020707F0020002
:103F900058B906F00300012801D147F0100706F0D8
:103FA0000C00042801D147F00807DBF81800C7729D
:103FB0000020BEE6222A3A3C3E3F7C7F0000000003
:103FC0002B2C3B3D5B5D00000349086000BF0249AC
:103FD00009680029FBD170470000002004480068F0
:103FE00020B103480068401E014908607047000086
:103FF000000000202DE9F04704460021204600F093
:10400000C0F9074617B13846BDE8F0874FF0FF0901
:10401000CA4600BF2169206801F0ABFF074607B11F
:1040200054E065692E780EB904274FE0E87A00F075
:104030003F08E52E05D008F0080028B1B8F10F0FB1
:1040400002D04FF0FF093AE0B8F10F0F1CD1E06940
:10405000A0B306F0400030B195F80DA026F0400660
:10406000B146E08820844E450AD1687B504507D18F
:104070002946E069FFF7E0FC10B1A9F1010000E07A
:10408000FF2000F0FF091AE0B9F1000F05D1284622
:1040900005F046FA504500D118E04FF0FF094FF601
:1040A000FF702084A069C07A00F0010030B90B22B3
:1040B0002846A16901F033FF00B907E0FFE70021BE
:1040C000204600F006F80746002FA3D000BF384670
:1040D0009AE72DE9F0410446884600BFE088401C7D
:1040E00086B20EB1206910B90420BDE8F08106F057
:1040F0000F0000286FD12069401C2061E06828B9BA
:1041000020680089B04266DC0420EEE720688078F1
:10411000401E00EA161000285DD1E168206801F019
:10412000FBFA0546012D01D80220DEE7681C08B91C
:104130000120DAE72068C069A84246D8B8F1000F2C
:1041400001D10420D1E7E1682068FFF75BFD054657
:104150000DB90720C9E7012D01D10220C5E7681C70
:1041600008B90120C1E70021206801F002FF08B171
:104170000120BAE7216801F134004FF400720021F8
:1041800001F0EDFE29462068FFF730FC2168086346
:10419000002710E00120216808710021206801F04B
:1041A000E8FE08B10120A0E72068006B401C2168F0
:1041B0000863781CC7B220688078B842EADC2068BF
:1041C000006BC01B2168086300BFE56029462068BA
:1041D000FFF70CFC2061E6802068343006F00F0108
:1041E00000EB4110606100207FE72DE9F04F85B0C2
:1041F0000446D4F81880D4F81CB00C22414601A81B
:1042000001F0A0FE9DF80F0000F0200018B106207C
:1042100005B0BDE8F08F9DF80F0000F0010020B35D
:10422000002088F80B00E06101270DE03B465A466C
:1042300001A9404601F0F2F92046FFF7DBFE0546F2
:1042400005B103E0781C87B2642FEFDB00BF642F59
:1042500001D10720DCE7042D01D02846D8E79DF8DE
:104260000F0088F80B00C4F81CB09DF80F0000F098
:10427000020070B1002601E0701C86B23BF8160007
:104280000028F9D106F119000D2190FBF1F086B25A
:1042900000E001260021204600F073F805460DB12C
:1042A0002846B5E700200746049000BF2169206832
:1042B00001F05FFE054605B119E0606990F80090D5
:1042C000B9F1E50F02D0B9F1000F08D10FB9E088BC
:1042D0000490781C80B20746B04201D107E0002765
:1042E00001212046FFF7F5FE0546002DDED000BF78
:1042F0004DBB012E27DD2046049900F042F805460B
:104300000DBBA06905F00CF90090701E86B200BFCD
:104310002169206801F02DFE054605B112E0F2B2D8
:104320006169E069009B01F0C9F80120216808710A
:1043300000212046FFF7CDFE05461DB9701E80B254
:10434000061EE5D100BFD5B92169206801F011FE34
:104350000546A5B9D4F814A020220021504601F04A
:10436000FEFD0B225046A16901F0ECFDA069C07A68
:1043700000F018008AF80C00012021680871284616
:1043800046E72DE9F04104460E46E680A568012D7A
:1043900003D02068C069A84202D80220BDE8F0819D
:1043A0002DB920680078032801D12068856A65B995
:1043B000E56020680089B04201DC0220EEE7206859
:1043C000806A00EB1610206120E0206880780701E9
:1043D00012E02946206801F09FF90546681C08B9DB
:1043E0000120DBE7022D03D32068C069A84201D871
:1043F0000220D3E7F01B86B2BE42EADAE560294626
:104400002068FFF7F3FA00EB1610206120683430C3
:1044100006F00F0100EB411060610020BEE730B5EF
:1044200093B0054600200090002D39D103F0A6FF7F
:1044300004461D2C04D101A803F012FD044602E03D
:10444000012013B030BD1D2C05D1BDF8480003F08C
:10445000F5FE044601E00120F3E7684603F05EFF45
:104460000446009800F0007008B100BFFEE71D2C64
:1044700005D14FF4006003F02BFC044601E001205D
:10448000DFE71D2C04D1002004F092FC044601E07B
:104490000120D6E71D2C01D10020D2E70120D0E772
:1044A0000120CEE70346002070472DE9F041074682
:1044B0000C4615461E464FF01C0814B90420BDE8F2
:1044C000F0810EB90420FAE787B9012E06D16902FE
:1044D0007202204603F060F9804607E06902334625
:1044E0004FF40072204604F005F88046B8F11D0F25
:1044F00001D10020E3E70120E1E7014609B90020EE
:1045000070470120FCE72DE9F04107460C461546AF
:104510001E464FF01C0814B90420BDE8F0810EB906
:104520000420FAE787B9012E06D1690272022046FB
:1045300003F03EFA804607E0690233464FF400720A
:10454000204604F025F98046B8F11D0F01D1002066
:10455000E3E70120E1E710B501EB4102D30000F1F0
:104560001002D25822F0010301EB4102D40000F105
:104570001002135110BD10B501EB4102D30000F140
:104580001002D25842F0010301EB4102D40000F1C5
:104590001002135110BD30B5134601EB4104E50084
:1045A00000F11004625922F0606242EA436201EBBA
:1045B0004104E50000F11004625130BD10B501EB7B
:1045C0004102D30000F11002D25822F0010301EBA6
:1045D0004102D40000F110021351002301EB41020B
:1045E000D40000F11002135101EB4102D40000F19C
:1045F0001402135101EB4102D40000F118021351CF
:1046000001EB4102D40000F11C02135101EB410205
:10461000D40000F120021351212301EB4102D40008
:1046200000F12402135104290CDA01EB410253007A
:10463000C1F3400203EB82033D229A4083681A4390
:1046400082600DE00A1FD1B201EB41025300C1F3B9
:10465000400203EB82033D229A40C3681A43C260C2
:1046600010BD10B504290CDA01EB41035C00C1F365
:10467000400304EB830302FA03F38468234383605B
:104680000DE00B1FD9B201EB41035C00C1F3400305
:1046900004EB830302FA03F3C4682343C36010BD31
:1046A00010B5034604290FDA01EB41004400C1F3C1
:1046B000400004EB800402FA04F01C68204008B1BA
:1046C000012010BD0020FCE7081FC1B201EB410032
:1046D0004400C1F3400004EB800402FA04F05C687B
:1046E000204008B10120ECE70020EAE730B572B9BC
:1046F00001EB4103DC0000F110031B5923F02004FF
:1047000001EB4103DD0000F110035C510DE001EB12
:104710004103DC0000F110031B5943F0200401EBBE
:104720004103DD0000F110035C5130BD70B501EBB9
:104730004104E50000F124046459156A45F00405BC
:104740002C4301EB4105EE0000F12405AC5101EBD7
:104750004104E60000F118041568A55101EB41047D
:10476000E60000F11C04D568A55101EB4104E60008
:1047700000F11404D56AA55101EB4104E50000F1F4
:1047800010046359414C2340156954682C43156B40
:104790002C43956A2C4395692C43D5692C432343BC
:1047A00001EB4104E50000F110046351946874B911
:1047B00001EB4104E50000F11004645944F4007574
:1047C00001EB4104E60000F11004A5511FE09468DC
:1047D000012C0ED101EB4104E50000F110046459F5
:1047E00024F4007501EB4104E60000F11004A5512A
:1047F0000DE001EB4104E50000F11004645944F4BC
:10480000004501EB4104E60000F11004A551546994
:1048100074B901EB4104E50000F11004645944F45B
:10482000806501EB4104E60000F11004A5510DE0A4
:1048300001EB4104E50000F11004645924F48065A3
:1048400001EB4104E60000F11004A551546A74B96B
:1048500001EB4104E50000F11004645944F4807553
:1048600001EB4104E60000F11004A5510DE001EB5D
:104870004104E50000F11004645924F4807501EB53
:104880004104E60000F11004A55170BD3F871CFEF5
:1048900030B58DB004460D46012203212748FFF7AD
:1048A000E0FE042203212548FFF7DBFE0822032156
:1048B0002248FFF7D6FE102203212048FFF7D1FE41
:1048C000202203211D48FFF7CCFE03211B48FFF7E0
:1048D00042FE03211948FFF771FE19480090039426
:1048E00000200A900B9001200290002005904FF4C8
:1048F00080500190800004904FF440300C904FF4B1
:104900000010079080000690032008900120099075
:104910006A4603210948FFF709FF012203210748DE
:10492000FFF7E4FE042203210448FFF734FE0321CD
:104930000248FFF720FE0DB030BD000000640240C9
:10494000802C014030B58DB004460D460122032174
:104950002748FFF786FE042203212548FFF781FE42
:10496000082203212248FFF77CFE10220321204861
:10497000FFF777FE202203211D48FFF772FE032177
:104980001B48FFF7E8FD03211948FFF717FE1948F8
:104990000090039440200A9000200B900120029088
:1049A000002005904FF480500190800004904FF457
:1049B00040300C904FF400100790800006900120CA
:1049C0000990032008906A4603210948FFF7AEFECC
:1049D000012203210648FFF789FE0422032104482F
:1049E000FFF7D9FD03210248FFF7C5FD0DB030BD2B
:1049F00000640240802C014010B52D4B1B6883439E
:104A00002B4C2360231D1B688343241D2360231D1F
:104A10001B688343241D2360231D1B688343241DBF
:104A2000236011B101290ED105E0214B1B6803431E
:104A30001F4C236008E01E4B1B1D1B6803431C4CCE
:104A4000241D236000E000BF00BF32B1012A11D055
:104A5000022A1CD0032A27D127E0154B08331B68F4
:104A60000343134C08342360231D1B688343241D18
:104A700023601BE00E4B08331B6883430C4C083447
:104A80002360231D1B680343241D23600EE0084B95
:104A900008331B680343064C08342360231D1B683E
:104AA0000343241D236001E000BF00BF00BF10BD11
:104AB000003C01400149086070470000143C01407F
:104AC000014604480068084008B1012070470020F2
:104AD000FCE70000143C014070B50446204600F09D
:104AE00043FB05460DB900202060284670BD2DE926
:104AF000FC4707468846914600243E4611E06B4637
:104B0000012201A9484600F067FA0098012800D068
:104B10000BE09DF8045006F8015B641C0A2D00D1DF
:104B200003E0A8F10100A042E9DC00BF00203070E2
:104B300014B13846BDE8FC870020FBE72DE9F047BB
:104B400004460E46A188206805F09EFA8246BAF116
:104B5000000F02D05046BDE8F087A07900F0800039
:104B600008B10220F7E7E068B04204D2A07900F073
:104B7000020000B9E668D4F808904FF00008C4F8C5
:104B80000880002E77D0206880784702B9F1000FA6
:104B900011D0701EB0FBF7F1A9F10100B0FBF7F0E6
:104BA000814208D3A9F10100791E8843A060A06862
:104BB000361A656918E02569ADB900212068FFF74C
:104BC00021F80546012D05D1A07940F08000A071A3
:104BD0000220C0E7681C28B9A07940F08000A071CD
:104BE0000120B8E725616561002D44D029E0A07956
:104BF00000F0020038B129462068FFF703F80546A7
:104C000035B93E461FE02946206800F085FD05467F
:104C1000681C28B9A07940F08000A07101209AE7B3
:104C2000012D03D92068C069A84205D8A07940F0B9
:104C30008000A07102208EE76561A0683844A06002
:104C4000F61BBE42D3D800BFA0683044A060C6F3B4
:104C5000080068B129462068FEF7C8FE8046B8F112
:104C6000000F06D1A07940F08000A071022072E709
:104C700001E008EB56282089C0F3080020B1A069A4
:104C8000404501D0C4F81880D4E90201884205D912
:104C9000A068E060A07940F02000A07150465AE77B
:104CA0002DE9F1478DB000F0A9FD0746012204A9C6
:104CB0000DA8FEF7C1FC0646002E75D101A80A908A
:104CC0005C480B9004A80D9900F038FC064606B924
:104CD0000826042E05D10A98C07A00F0200000B101
:104CE0000626042EE9D100210498FEF78BFF054625
:104CF000002605B90726012D00D10226681C00B93F
:104D0000012626B90021049801F033F90646002E49
:104D100068D129460498FEF769FE8246049800F19E
:104D200034044FF400720021204601F018F90B22E0
:104D30002021204601F013F92E2020701020E0726F
:104D4000A775390AE175390C2176390E6176A57699
:104D5000290AE176280C2075290E6175202221464A
:104D600004F1200001F0EEF82E2084F82100DDF897
:104D7000188004980078032804D10498806A40457C
:104D800000D1B04684F83A804FEA182184F83B10ED
:104D9000C8F30741342001554FEA186184F83510F3
:104DA000049890F8029019E03FE00498C0F830A011
:104DB0000AF1010A0120049908710021049801F008
:104DC000D8F8064606B10CE04FF4007200212046E8
:104DD00001F0C5F8A9F1010000F0FF09B9F1000FD9
:104DE000E3D100BF1EB904A8FFF7FFF9064626B1BC
:104DF0002946049802F023F917E0099C1020E0727C
:104E0000A775390AE175390C2176390E6176A576D8
:104E1000290AE176280C2075290E61750120049974
:104E20000871049804F08CFB064630460EB0BDE8CD
:104E3000F08700003C0500200246012A01DB0B2020
:104E40007047074850F822300BB10020187009B1A4
:104E500000200870024840F822100020F0E700000F
:104E60004C0000202DE9F7438CB005461646002083
:104E7000286006F01F0626F0010203A90DA8FEF720
:104E8000DBFB0746CDF824D052480A9027B903A887
:104E90000D9900F053FB0746089C0FB904B906278B
:104EA00006F01C00002858D04FB1042F03D103A8EE
:104EB000FFF79BF9074646F00806089C09E0E07AF0
:104EC00000F0110008B1072703E006F0040000B16C
:104ED0000827002F40D106F0080000283CD000F041
:104EE0008DFC804684F80E804FEA1821E1734FEA6A
:104EF000184121744FEA186161740020E072207734
:104F000000216177A177E177A17EE07E41EA00216F
:104F1000227D607D42EA002041EA00490020A0761F
:104F20000021E17620756175012003990871B9F1BE
:104F3000000F11D00398D0F830804946039802F052
:104F40007EF8074647B9A9F101000399C8604146B8
:104F5000039801F00EF807460EE06FB9E07A00F012
:104F6000100008B1042707E006F0020020B1E07A43
:104F700000F0010000B1072747B906F0080008B1AA
:104F800046F020060398006BE8612C62F7B9AE7119
:104F9000A17EE07E41EA0021227D607D42EA002080
:104FA00041EA00402861E07F0106A07F41EA00411C
:104FB000607F41EA0020217F0843E8600020A8606C
:104FC000A861039828600398C088A88038460FB06D
:104FD000BDE8F0833C0500202DE9FF4F83B0044677
:104FE00015469A46DDF810B00020CAF80000A188E6
:104FF000206805F049F80290029818B1029807B0AD
:10500000BDE8F08FA07900F0800008B10220F6E73B
:10501000A07900F0010008B90720F0E7D4E90210F8
:10502000401A00900098854200D9009D97E02089A1
:10503000C0F3080000286AD120688078401EA1686B
:1050400000EA512000F0FF09B9F1000F1DD1A0685E
:1050500010B92069019004E06169206800F05CFBF0
:1050600001900198022805D2A07940F08000A0713B
:105070000220C4E70198401C28B9A07940F08000C4
:10508000A0710120BBE70198606161692068FEF7AB
:10509000ADFC06462EB9A07940F08000A071022038
:1050A000ADE74E444FEA5528B8F1000F2ED009EB7A
:1050B000080021688978884203D920688078A0EBAD
:1050C000090808F0FF032168487832465946FFF77F
:1050D000ECF928B1A07940F08000A07101208EE7A2
:1050E0002068007978B12068006B801B40450AD2A7
:1050F000226802F13401126B921B0BEB42204FF439
:10510000007200F01FFF4FEA48271EE0A6612089C9
:10511000C0F30800C0F50077AF4200D92F46A1695F
:10512000206800F026FF28B1A07940F08000A0712F
:10513000012064E7206834302289C2F30802811814
:105140003A46584600F0FEFE00BFBB44A068384413
:10515000A060DAF800003844CAF80000ED1B002D0A
:105160007FF465AF00204AE72DE9F0410446A188AD
:10517000206804F089FF0746002F3BD1A07900F09A
:105180002000002836D0E169206800F0F2FE0746D2
:10519000002F2FD1256AE87A40F02000E872207BAA
:1051A0002877A089010A6977E068010CA977E0688F
:1051B000010EE977207CA876208A010AE976206929
:1051C000000C28752069010E697500F017FB064672
:1051D000AE75310AE975310C2976310E6976A07900
:1051E00020F02000A071012021680871206804F0DF
:1051F000A7F907463846BDE8F0812DE9FF4F83B097
:10520000044615469B46049801900020CBF8000008
:10521000A188206804F038FF0290029818B1029823
:1052200007B0BDE8F08FA07900F0800008B102203F
:10523000F6E7A07900F0020008B90720F0E7E0687F
:105240002844E168884200D20025CDE02089C0F3DF
:105250000800002870D120688078401EA16800EA0C
:10526000512000F0FF0ABAF1000F2AD1A06858B906
:10527000D4F81080B8F1000F0BD100212068FEF7A0
:10528000C1FC8046206104E061692068FEF7BAFC39
:105290008046B8F1000F00D1A9E0B8F1010F05D1A7
:1052A000A07940F08000A0710220B9E708F1010068
:1052B00028B9A07940F08000A0710120B0E7C4F8BF
:1052C00014802068006BA16988420AD100212068FF
:1052D00000F04FFE28B1A07940F08000A0710120BD
:1052E0009EE761692068FEF781FB06462EB9A0792A
:1052F00040F08000A071022092E756444FEA552901
:10530000B9F1000F31D00AEB090021688978884291
:1053100003D920688078A0EB0A0909F0FF0321680F
:10532000487832460199FFF7EEF830B1A07940F0A5
:105330008000A071012073E729E02068006B801BCA
:1053400048450FD22268126B921B019B03EB42214E
:10535000226802F134004FF4007200F0F3FD0020E7
:10536000216808714FEA492732E0D4E902018842F6
:105370000CD30021206800F0FCFD28B1A07940F09A
:105380008000A07101204BE720680663A661208998
:10539000C0F30800C0F50077AF4200D92F46A169DD
:1053A000206800F0E6FD28B1A07940F08000A071EF
:1053B000012035E7216834312289C2F308028818B8
:1053C0003A46019900F0BEFD01202168087100BF36
:1053D000019838440190A0683844A060DBF80000D0
:1053E0003844CBF80000ED1B002D7FF42FAF00BF39
:1053F000D4E90201884201D9A068E060A07940F0B8
:105400002000A07100200BE72DE9F04102460F4675
:10541000802A01DC10462FE01FB1184B41F6DD4613
:1054200002E0174B41F6DD460025102416E0A6EBFE
:10543000050C0CEBDC7805EB68014FEA410C33F806
:105440001CC0944500D10BE04FEA410C33F81CC05E
:10545000944501DA0D4600E00E46641E002CE6D1AC
:1054600000BF34B14FF0010C0CEB410C33F81CC001
:1054700001E04FF0000C6046BDE8F0812A340108DD
:10548000B2C000080246002100E0491C094830F87B
:10549000110020B1074830F811009042F5D10548BD
:1054A00030F8110018B1044830F811007047104668
:1054B000FCE70000A2A7010882A90108F0B5044694
:1054C0001D464D730F27CF7200270F738F76BC4692
:1054D00081F81BC0571E07EB870C0CEBC706002793
:1054E00038463B4600BF4FF6FF77B84203D03746F9
:1054F000761C34F81700DFF840C01CF803C001F830
:105500000C000712DFF830C01CF803C08C448CF884
:10551000017008B94FF6FF705F1C3B460D2FE2D3B8
:105520004FF6FF77B84202D034F816700FB942F048
:1055300040020A70F0BD0000A5C000082DE9F3414B
:105540000446019800782F2803D0019800785C2841
:1055500005D10198401C01900020A06002E0206865
:105560008069A06001980078202807D20021204699
:10557000FEF707FF07460020606139E000BF01A980
:105580002046FEF7AFFB074607B130E02046FEF7A6
:1055900031FD0746A069C67A97B1042F00D026E0F6
:1055A00006F0200038B10020A0606061002706F0FE
:1055B000040020B9E3E706F0040000B9052716E06F
:1055C00006F0040000B112E06569E87A00F010000E
:1055D00008B905270BE0A97EE87E41EA00212A7D73
:1055E000687D42EA002041EA0040A060C7E700BFB2
:1055F0003846BDE8FC81000070B504460D46E1B2B6
:10560000054804F0D4FB00BF0721034804F047FC21
:105610000028F9D0204670BD001001402DE9FC475C
:1056200006468A4690461C460B225146304600F0FC
:1056300089FC052C0BDD00BF601000EBC43138F88D
:10564000022B881884B2B8F800000028F4D107278C
:1056500000BF2046E11704EB11710911A4EB011101
:10566000303101F0FF09B9F1390F03DD09F107000D
:1056700000F0FF0938467F1E0DF800902046E11724
:1056800004EB1171C1F30F14002CE2D17E200DF850
:105690000700002511E0705D812802DB705D9F2806
:1056A00005DD705DE02807DB705DFC2804DC781EFA
:1056B000A84200D106E06D1C6D1CBD4202D2705D97
:1056C0002028E8D100BF00BF082F04D238467F1C35
:1056D0001DF8000000E0202029466D1C7054082DA4
:1056E000F2D3BDE8FC870000014800787047000055
:1056F0003900002001480078704700003800002081
:1057000001480078704700004200002001480078FE
:10571000704700003E0000202DE9F04105460C4690
:10572000022C02D3E869A04202D80120BDE8F08132
:105730002878012804D002282CD003285AD13DE033
:10574000274607EB5707686A00EB5721284600F009
:1057500010FC00B14EE0C7F3080105F1340010F869
:1057600001807F1C686A00EB5721284600F001FC8D
:1057700000B13FE0C7F3080105F13400405C48EA9E
:10578000002804F0010010B14FEA1810CEE7C8F36A
:105790000B00CBE7686A00EB1421284600F0E9FB18
:1057A00000B127E040F2FF1000EA440105F13400A7
:1057B0000E183078717840EA0120B7E7686A00EB8C
:1057C000D411284600F0D5FB00B113E040F2FF10E1
:1057D00000EA840105F134000E18F0780006B17873
:1057E00040EA0140717840EA01203178084320F016
:1057F00070409BE700BF4FF0FF3097E700207047F5
:10580000014800787047000041000020014890EDF9
:10581000000A70475C000020014890ED000A7047C4
:10582000540000200148007870470000400000202C
:1058300001480078704700006000002001480078AF
:105840007047000058000020F0B503461C6A5D6AEE
:1058500000200DE00126864016403EB187000F264D
:10586000BE40B443860001FA06F63443461CB0B28B
:105870000828EFD3082011E00126864016405EB1CB
:10588000A0F10806B7000F26BE40B543A0F10806F8
:10589000B60001FA06F63543461CB0B21028EBD329
:1058A0001C625D62F0BD8162704781617047C162B8
:1058B0007047000010B54FF4F8520C211848FFF75C
:1058C000C3FF04220C211748FFF7BEFF4FF470639B
:1058D00001220221124800F02FF84FF470630122D8
:1058E00000210F4800F04FF84FF4805300220221AE
:1058F0000B4800F021F84FF48053012200210848A2
:1059000000F041F8042301220221064800F014F8B7
:10591000042301220021034800F035F810BD0000E7
:1059200000080240000C024002461069084008B11D
:10593000012070470020FCE7F0B504460D461646EE
:105940002168E268002019E0012787401F409FB1CD
:105950004FEA400C032707FA0CF7B943470005FA52
:1059600007F739434FEA400C032707FA0CF7BA430D
:10597000470006FA07F73A43471CB8B21028E3D3AA
:105980002160E260F0BDF0B50C461546012C03D154
:1059900046681E43466002E046689E434660826851
:1059A00000210DE001268E401E403EB14F0003262F
:1059B000BE40B2434E0005FA06F632434E1CB1B269
:1059C0001029EFD38260F0BD10B52DED028B84B0AD
:1059D000044609480068FAF7FBFF41EC180B07483A
:1059E00002908DED008B06A21E212046FCF7B6FF2B
:1059F00004B0BDEC028B10BD6800002098070020A9
:105A0000252E3266560D0A686964653A25730000D2
:105A10002DE9F047A6B005468846164699462E9FC2
:105A2000642103A8FAF7F7FB284800780A2838DA37
:105A3000122241461DA8FFF715FA044614B126B0FC
:105A4000BDE8F0871DA82099FFF778F804461CB13F
:105A50001DA8FFF741F8F2E74B461DA2642103A8F9
:105A60000097FCF77BFF03A8FAF7E0FB82461CAB2C
:105A7000524603A91DA8FFF7C0FB044654B903A86A
:105A8000FAF7D4FB1C99884204D113480078401CD3
:105A9000114908701DA8FFF767FB1DA8FFF71CF848
:105AA00012E00020094908700CA02B460DA24021ED
:105AB000CDE900600D48FCF751FF4B4632460B49DB
:105AC00028460097FFF7A4FF00BFB8E78B0000202F
:105AD00025732025730D0A00890000202E74787428
